{
  "contractName": "Cannatch",
  "abi": [
    {
      "anonymous": false,
      "inputs": [
        {
          "indexed": false,
          "internalType": "uint256",
          "name": "blockNumber",
          "type": "uint256"
        },
        {
          "indexed": false,
          "internalType": "uint256",
          "name": "gasUsed",
          "type": "uint256"
        },
        {
          "indexed": false,
          "internalType": "uint256",
          "name": "gasLimit",
          "type": "uint256"
        },
        {
          "indexed": false,
          "internalType": "uint256",
          "name": "minedOn",
          "type": "uint256"
        },
        {
          "indexed": false,
          "internalType": "bytes32",
          "name": "blockHash",
          "type": "bytes32"
        },
        {
          "indexed": true,
          "internalType": "address",
          "name": "fromAddress",
          "type": "address"
        },
        {
          "indexed": true,
          "internalType": "address",
          "name": "toAddress",
          "type": "address"
        },
        {
          "indexed": false,
          "internalType": "bytes32",
          "name": "txHash",
          "type": "bytes32"
        }
      ],
      "name": "TransactionExecuted",
      "type": "event"
    },
    {
      "inputs": [
        {
          "internalType": "address",
          "name": "to",
          "type": "address"
        },
        {
          "internalType": "uint256",
          "name": "_gasLimit",
          "type": "uint256"
        }
      ],
      "name": "executeTransaction",
      "outputs": [
        {
          "internalType": "bool",
          "name": "",
          "type": "bool"
        }
      ],
      "stateMutability": "nonpayable",
      "type": "function"
    }
  ],
  "bytecode": "0x608060405234801561001057600080fd5b506101af806100206000396000f3fe608060405234801561001057600080fd5b506004361061002b5760003560e01c8063683ae08314610030575b600080fd5b61004361003e366004610120565b610057565b604051901515815260200160405180910390f35b60006001600160a01b038316337f2c0ddf7bddede4ba377f97b8653b992439f88f900dd74e3d0bee863fd712b664435a8642610094600143610158565b4042338c6040516020016100d193929190928352606091821b6bffffffffffffffffffffffff199081166020850152911b16603482015260480190565b60408051601f198184030181528282528051602091820120978352820195909552938401929092526060830152608082015260a081019190915260c00160405180910390a35060015b92915050565b6000806040838503121561013357600080fd5b82356001600160a01b038116811461014a57600080fd5b946020939093013593505050565b8181038181111561011a57634e487b7160e01b600052601160045260246000fdfea26469706673582212206afb8590ac08322ec4dd725d37ef8eea2ee63ecbfbe629696bdca51747a4135a64736f6c63430008150033",
  "immutableReferences": {},
  "source": "// SPDX-License-Identifier: UNLICENSED\r\npragma solidity ^0.8.0;\r\n\r\ncontract Cannatch {\r\n    // Event to log transaction details\r\n    event TransactionExecuted(\r\n        uint256 blockNumber,\r\n        uint256 gasUsed,\r\n        uint256 gasLimit,\r\n        uint256 minedOn,\r\n        bytes32 blockHash,\r\n        address indexed fromAddress,\r\n        address indexed toAddress,\r\n        bytes32 txHash\r\n    );\r\n\r\n    // Function to simulate a blockchain transaction\r\n    // Accepts a recipient address and a gas limit parameter.\r\n    function executeTransaction(address to, uint256 _gasLimit) public returns (bool) {\r\n        emit TransactionExecuted(\r\n            block.number,\r\n            gasleft(),\r\n            _gasLimit,\r\n            block.timestamp,\r\n            blockhash(block.number - 1),\r\n            msg.sender,\r\n            to,\r\n            keccak256(abi.encodePacked(block.timestamp, msg.sender, to))\r\n        );\r\n        return true;\r\n    }\r\n}\r\n",
  "sourcePath": "C:\\Users\\ashwi\\Downloads\\drugs Project Bl\\drugs Project Bl\\blockchain\\contracts\\Cannatch.sol",
  "compiler": {
    "name": "solc",
    "version": "0.8.21+commit.d9974bed.Emscripten.clang"
  },
  "schemaVersion": "3.4.16",
  "updatedAt": "2025-03-19T04:23:08.847Z",
  "networkType": "ethereum",
  "devdoc": {
    "kind": "dev",
    "methods": {},
    "version": 1
  },
  "userdoc": {
    "kind": "user",
    "methods": {},
    "version": 1
  }
}